{
  "contractName": "Bank",
  "abi": [
    {
      "anonymous": false,
      "inputs": [
        {
          "indexed": false,
          "name": "email",
          "type": "string"
        },
        {
          "indexed": false,
          "name": "name",
          "type": "string"
        },
        {
          "indexed": false,
          "name": "amount",
          "type": "uint256"
        }
      ],
      "name": "CreateUser",
      "type": "event",
      "signature": "0x97af061595d0cfe01d7960a0375c04ac66b85495dc545270f062396615d3967e"
    },
    {
      "anonymous": false,
      "inputs": [
        {
          "indexed": false,
          "name": "email",
          "type": "string"
        },
        {
          "indexed": false,
          "name": "amount",
          "type": "uint256"
        }
      ],
      "name": "updateAmount",
      "type": "event",
      "signature": "0x1e29a803f86aeda6395d00eb2233ae042af6a91499879b71550fdcd5caf4164a"
    },
    {
      "constant": false,
      "inputs": [
        {
          "name": "email_",
          "type": "string"
        },
        {
          "name": "name_",
          "type": "string"
        },
        {
          "name": "amount_",
          "type": "uint256"
        }
      ],
      "name": "createUserRequest",
      "outputs": [],
      "payable": false,
      "stateMutability": "nonpayable",
      "type": "function",
      "signature": "0x50e150b2"
    },
    {
      "constant": false,
      "inputs": [
        {
          "name": "email_",
          "type": "string"
        },
        {
          "name": "amount_",
          "type": "uint256"
        }
      ],
      "name": "UpdateAmountRequest",
      "outputs": [],
      "payable": false,
      "stateMutability": "nonpayable",
      "type": "function",
      "signature": "0xee3c2c88"
    },
    {
      "constant": true,
      "inputs": [
        {
          "name": "email_",
          "type": "string"
        }
      ],
      "name": "getUserInfo",
      "outputs": [
        {
          "name": "email",
          "type": "string"
        },
        {
          "name": "name",
          "type": "string"
        }
      ],
      "payable": false,
      "stateMutability": "view",
      "type": "function",
      "signature": "0x7c9b7fdd"
    },
    {
      "constant": true,
      "inputs": [
        {
          "name": "email_",
          "type": "string"
        }
      ],
      "name": "getUserAmount",
      "outputs": [
        {
          "name": "sucess",
          "type": "uint256"
        }
      ],
      "payable": false,
      "stateMutability": "view",
      "type": "function",
      "signature": "0x67a7b7cb"
    }
  ],
  "bytecode": "0x608060405234801561001057600080fd5b50610de4806100206000396000f3fe608060405260043610610062576000357c0100000000000000000000000000000000000000000000000000000000900463ffffffff16806350e150b21461006757806367a7b7cb146101d05780637c9b7fdd146102ac578063ee3c2c8814610459575b600080fd5b34801561007357600080fd5b506101ce6004803603606081101561008a57600080fd5b81019080803590602001906401000000008111156100a757600080fd5b8201836020820111156100b957600080fd5b803590602001918460018302840111640100000000831117156100db57600080fd5b91908080601f016020809104026020016040519081016040528093929190818152602001838380828437600081840152601f19601f8201169050808301925050505050505091929192908035906020019064010000000081111561013e57600080fd5b82018360208201111561015057600080fd5b8035906020019184600183028401116401000000008311171561017257600080fd5b91908080601f016020809104026020016040519081016040528093929190818152602001838380828437600081840152601f19601f8201169050808301925050505050505091929192908035906020019092919050505061052b565b005b3480156101dc57600080fd5b50610296600480360360208110156101f357600080fd5b810190808035906020019064010000000081111561021057600080fd5b82018360208201111561022257600080fd5b8035906020019184600183028401116401000000008311171561024457600080fd5b91908080601f016020809104026020016040519081016040528093929190818152602001838380828437600081840152601f19601f82011690508083019250505050505050919291929050505061082f565b6040518082815260200191505060405180910390f35b3480156102b857600080fd5b50610372600480360360208110156102cf57600080fd5b81019080803590602001906401000000008111156102ec57600080fd5b8201836020820111156102fe57600080fd5b8035906020019184600183028401116401000000008311171561032057600080fd5b91908080601f016020809104026020016040519081016040528093929190818152602001838380828437600081840152601f19601f8201169050808301925050505050505091929192905050506108a4565b604051808060200180602001838103835285818151815260200191508051906020019080838360005b838110156103b657808201518184015260208101905061039b565b50505050905090810190601f1680156103e35780820380516001836020036101000a031916815260200191505b50838103825284818151815260200191508051906020019080838360005b8381101561041c578082015181840152602081019050610401565b50505050905090810190601f1680156104495780820380516001836020036101000a031916815260200191505b5094505050505060405180910390f35b34801561046557600080fd5b506105296004803603604081101561047c57600080fd5b810190808035906020019064010000000081111561049957600080fd5b8201836020820111156104ab57600080fd5b803590602001918460018302840111640100000000831117156104cd57600080fd5b91908080601f016020809104026020016040519081016040528093929190818152602001838380828437600081840152601f19601f82011690508083019250505050505050919291929080359060200190929190505050610a85565b005b610533610c79565b6040805190810160405280858152602001848152509050806000856040518082805190602001908083835b602083101515610583578051825260208201915060208101905060208303925061055e565b6001836020036101000a038019825116818451168082178552505050505050905001915050908152602001604051809103902060008201518160000190805190602001906105d2929190610c93565b5060208201518160010190805190602001906105ef929190610c93565b50905050816002856040518082805190602001908083835b60208310151561062c5780518252602082019150602081019050602083039250610607565b6001836020036101000a0380198251168184511680821785525050505050509050019150509081526020016040518091039020819055506040805190810160405280601481526020017f526571756573742073656e6420746f2062616e6b0000000000000000000000008152506001856040518082805190602001908083835b6020831015156106d157805182526020820191506020810190506020830392506106ac565b6001836020036101000a03801982511681845116808217855250505050505090500191505090815260200160405180910390209080519060200190610717929190610d13565b507f97af061595d0cfe01d7960a0375c04ac66b85495dc545270f062396615d3967e848484604051808060200180602001848152602001838103835286818151815260200191508051906020019080838360005b8381101561078657808201518184015260208101905061076b565b50505050905090810190601f1680156107b35780820380516001836020036101000a031916815260200191505b50838103825285818151815260200191508051906020019080838360005b838110156107ec5780820151818401526020810190506107d1565b50505050905090810190601f1680156108195780820380516001836020036101000a031916815260200191505b509550505050505060405180910390a150505050565b60006002826040518082805190602001908083835b6020831015156108695780518252602082019150602081019050602083039250610844565b6001836020036101000a0380198251168184511680821785525050505050509050019150509081526020016040518091039020549050919050565b6060806108af610c79565b6000846040518082805190602001908083835b6020831015156108e757805182526020820191506020810190506020830392506108c2565b6001836020036101000a0380198251168184511680821785525050505050509050019150509081526020016040518091039020604080519081016040529081600082018054600181600116156101000203166002900480601f0160208091040260200160405190810160405280929190818152602001828054600181600116156101000203166002900480156109be5780601f10610993576101008083540402835291602001916109be565b820191906000526020600020905b8154815290600101906020018083116109a157829003601f168201915b50505050508152602001600182018054600181600116156101000203166002900480601f016020809104026020016040519081016040528092919081815260200182805460018160011615610100020316600290048015610a605780601f10610a3557610100808354040283529160200191610a60565b820191906000526020600020905b815481529060010190602001808311610a4357829003601f168201915b5050505050815250509050806000015181602001518191508090509250925050915091565b806002836040518082805190602001908083835b602083101515610abe5780518252602082019150602081019050602083039250610a99565b6001836020036101000a038019825116818451168082178552505050505050905001915050908152602001604051809103902081905550606060405190810160405280602681526020017f6166746572207570646174696e672062616c616e63652072657175657374206981526020017f6e2062616e6b00000000000000000000000000000000000000000000000000008152506001836040518082805190602001908083835b602083101515610b8a5780518252602082019150602081019050602083039250610b65565b6001836020036101000a03801982511681845116808217855250505050505090500191505090815260200160405180910390209080519060200190610bd0929190610d13565b507f1e29a803f86aeda6395d00eb2233ae042af6a91499879b71550fdcd5caf4164a82826040518080602001838152602001828103825284818151815260200191508051906020019080838360005b83811015610c3a578082015181840152602081019050610c1f565b50505050905090810190601f168015610c675780820380516001836020036101000a031916815260200191505b50935050505060405180910390a15050565b604080519081016040528060608152602001606081525090565b828054600181600116156101000203166002900490600052602060002090601f016020900481019282601f10610cd457805160ff1916838001178555610d02565b82800160010185558215610d02579182015b82811115610d01578251825591602001919060010190610ce6565b5b509050610d0f9190610d93565b5090565b828054600181600116156101000203166002900490600052602060002090601f016020900481019282601f10610d5457805160ff1916838001178555610d82565b82800160010185558215610d82579182015b82811115610d81578251825591602001919060010190610d66565b5b509050610d8f9190610d93565b5090565b610db591905b80821115610db1576000816000905550600101610d99565b5090565b9056fea165627a7a72305820f2899c24054712b1aeee4604c7c0cfe87602ab126d92cd3889cfaecf3d526d570029",
  "source": "pragma solidity >=0.4.21 <0.6.0;\n\ncontract Bank \n{\n\n  struct User \n  {\n    string email;\n    string name;\n  }\n\n  mapping(string => User)  users;\n  mapping(string => string)  userRequestStatus;\n  mapping(string => uint256)  balance;\n\n  event CreateUser( \n  string email,\n  string name,\n  uint256 amount);\n\n  event updateAmount( \n  string email,\n  uint256 amount);\n\n  function createUserRequest(string memory email_, string memory name_, uint256 amount_) public \n  {\n    User memory user = User( { email: email_, name: name_});\n    users[email_]= user;\n    balance[email_] = amount_;\n    userRequestStatus[email_] = \"Request send to bank\";\n    emit CreateUser(email_, name_, amount_);\n  }\n\n  function UpdateAmountRequest(string memory email_, uint256 amount_ ) public \n  {\n    balance[email_] = amount_;\n    userRequestStatus[email_] = \"after updating balance request in bank\";\n    emit updateAmount(email_, amount_);\n\n  }\n\n\n  function getUserInfo(string memory email_ ) public  view returns(string memory email ,string memory name) \n  {\n      User memory user = users[email_];\n      return (user.email, user.name);\n  }\n  function getUserAmount(string memory email_) public  view returns(uint256 sucess) \n  {\n   return( balance[email_]);\n\n  }\n\n}\n",
  "sourcePath": "/home/laxman/LAXMAN/BankLoan/blockchain/contracts/Bank.sol",
  "compiler": {
    "name": "solc",
    "version": "0.5.0+commit.1d4f565a.Emscripten.clang"
  },
  "schemaVersion": "3.0.5",
  "updatedAt": "2019-04-01T09:23:12.508Z",
  "devdoc": {
    "methods": {}
  },
  "userdoc": {
    "methods": {}
  }
}